:1000000000000220C1020000B9020000B902000095
:10001000B9020000B9020000B902000000000000AF
:10002000000000000000000000000000BD02000011
:100030000000000000000000BD020000BD02000042
:10004000F10F00005D100000FD0C0000BD0200007B
:10005000BD020000BD020000BD020000BD020000A4
:10006000BD020000BD020000BD020000BD02000094
:10007000BD020000BD020000BD020000BD02000084
:10008000BD020000BD020000BD020000BD02000074
:10009000BD020000BD020000BD020000BD02000064
:1000A000BD020000BD020000BD020000BD02000054
:1000B000BD020000BD0200000000000000000000C2
:1000C000BD020000BD020000BD020000BD02000034
:1000D000BD020000BD020000BD020000BD02000024
:1000E000BD020000BD020000BD02000000000000D3
:1000F00000000000BD02000000000000BD02000082
:1001000000000000000000000000000000000000EF
:1001100000000000000000000000000000000000DF
:1001200000000000000000000000000000000000CF
:1001300000000000000000000000000000000000BF
:1001400000000000000000000000000000000000AF
:10015000000000000000000000000000000000009F
:10016000000000000000000000000000000000008F
:10017000000000000000000000000000000000007F
:10018000000000000000000000000000000000006F
:10019000000000000000000000000000000000005F
:1001A000000000000000000000000000000000004F
:1001B000000000000000000000000000000000003F
:1001C000000000000000000000000000000000002F
:1001D000000000000000000000000000000000001F
:1001E000000000000000000000000000000000000F
:1001F00000000000000000000000000000000000FF
:1002000008B501F091F8064801F08AF8054B064858
:1002100006221A7001F084F800F02AF8FEE700BF09
:10022000A013000000000020B013000010B50C4C1B
:100230000C4B0D492268591A2AB11044884207D83C
:100240002060104610BD094A226010448842F7D948
:1002500000F02EFF0C2303604FF0FF32104610BD5C
:10026000700000200000022000040000E0060020D2
:1002700010B50F4B93E8030082B000900D488DF845
:10028000041001F04DF8002000F068FE002000F09E
:100290001DFE0021836A04469847E36A05226946E9
:1002A000204698474FF47A7000F06CFEF5E700BFE7
:1002B000D8130000C4130000FEE700BF704700BF62
:1002C0001D4B1E498B4210B40ED20139C91A21F0C0
:1002D000030104311A4A19441846043314680460AF
:1002E0008B4202F10402F7D1164B174A93420BD20C
:1002F000013AD21A22F0030204321A4400201946AD
:10030000043393420860FAD1104B11498B420ED24C
:100310000139C91A21F0030104310E4A1944184663
:10032000043314680460994202F10402F7D15DF8C5
:10033000044BFFF765BF00BF000000206C000020E9
:1003400008140000700000208406002088060020A9
:10035000E006002000000A002DE9F84F1546A942EA
:10036000DDF828B00B9A0F4606469846C0F0BA80D2
:100370000B464FF00109B3FBF5F39D4209F101096A
:10038000F9D9C14538BFC14612F0010A02D1BBF10B
:10039000000F72D1F16800296DDBB268B8F1010F6E
:1003A0004FF0010406D908F1FF38B8F1010F05FB41
:1003B00004F4F8D8B7FBF4F39D4205D805FB04F428
:1003C000B7FBF4F39D42F9D9DFF82C819E4608E093
:1003D000002925DBB4FBF5F3AC4221D3B7FBF3FED8
:1003E0001C467068531C8342BC4604FB1E770BD826
:1003F000BCFBF4FC316818F80C008854F168706894
:10040000B3600131F1601A468242E1D1316830694E
:1004100000F0C8FAB368984259D04FF0FF33F36048
:10042000BAF1000F27D0BBF1000F24D02025002403
:100430005F4603E0F368002B1DDBE7B1B94507F128
:10044000FF3718D2D6E90123591C914207D83268E8
:10045000D554F268B1600132F26072680B469A427C
:10046000E8D13168306900F09DFAB36898423CD019
:100470004FF0FF33F360BDE8F88F93072CD42024AE
:10048000CDF828B0A3460A9C03E0F1680029F2DB0E
:100490006CB3A1452ED2D6E90123591C914204F137
:1004A000FF3408D8326802F803B0F268B160013254
:1004B000F26072680B469A42E7D13168306900F009
:1004C00071FAB3689842D3D10023B360DDE700230B
:1004D000F168B3601A467BE7B8F1000F0CBF302417
:1004E0002024CDE74FF001094BE7B460A2E71A469C
:1004F000A34653E7A3464DE7E01300002DE9F04F74
:100500009BB083464023002090460AAACDE90523EC
:10051000CDE9080BDFF86CA407900C4614F8013BFA
:10052000ABB1252B2DD0DDE906514A1CAA4218D8C3
:10053000059843540898069B01309A42CDE907205C
:1005400012D000281ADB14F8013B002BE9D1002857
:1005500014DD079A002A40F0A68110441BB0BDE8C4
:10056000F08FA942DAD10A460599099800F01AFAE3
:10057000079B984200F02B814FF0FF301BB0BDE885
:10058000F08F0026254614F8013BA3F123020D2A23
:1005900008D8DFE802F04607070707070707430701
:1005A00049070740A3F13002092A4FF000040BD895
:1005B00004EB840403EB440415F8013FA3F130027B
:1005C000092AA4F13004F3D92E2B00F0048100276E
:1005D00001E015F8013F03F0FB02682AF9D0252B52
:1005E00000F01081583BDAB2202A2ED8202B2CD8CC
:1005F000DFE803F01D2B2B2B2B2B2B2B2B2B2BBCBA
:10060000892B2B2B2B2B2B2B2B2B2B2B502B2B32B0
:100610002B2D2B2B1D0046F00206B3E746F00406F7
:10062000B0E746F00806ADE746F00106AAE7D8F8BD
:1006300000103B461022081DC8F80000096805A8F4
:10064000CDE90046FFF788FE08986C1C79E7D8F8DA
:1006500000103B460A22EEE7D8F800301A1DC8F811
:1006600000201E68002416F8017B002FEDD0DDE984
:1006700006135A1C8A4200F29B800599CF540898B1
:10068000069B01309A42CDE9072000F095800028B2
:10069000E9DADAE7D8F800301A1DC8F800201E6839
:1006A0000F2E03D933461B090F2BFCD8079A4FF0A6
:1006B0008054002706E000284FEA1413C5DB0F2CF6
:1006C000C3D91C46069BB6FBF4FE511C994204FBA1
:1006D0001E660AD8AA4B13F80E00059B985408987A
:1006E000069B079101300A4608909A42E3D105998A
:1006F000099800F057F9079B98427FF43DAF08989E
:1007000007970022D7E7D8F800301A1DC8F8002054
:10071000D3F8009089EAE972A2EBE972092A4FF056
:10072000010308DD11466329AAFB020203F101035C
:100730004FEAD202F6DCBB4238BF3B46002C72D1F6
:10074000B9F1000FC0F2B780720700F1CB8006F05C
:100750000302022A00F0CF8005A8CDE900463B46FF
:1007600049460A22FFF7F8FD08986EE7DDE90632F0
:10077000D8F80040211DC8F80010511C994208D833
:10078000059B206898540898069B079101300A46FB
:1007900008909A427FF459AF0599099800F002F940
:1007A000079B98427FF4E8AE0023089807934CE734
:1007B0008B427FF458AF1A460599099800F0F2F879
:1007C000079B98427FF4D8AE089807945FE7002310
:1007D00008980793B5E66B78A3F13002092A05F172
:1007E00001054FF000073FF6F6AE07EB870703EB76
:1007F000470715F8013FA3F13002092AA7F1300796
:10080000F3D9E8E6DDE90612541C8C4207D80599B5
:100810008B540898069907940130224608908A4222
:10082000BAD06C1C8DE6B9F1000F2BDB700729D410
:10083000B10701D5002F83D016F0010202927FF498
:100840007FAF002C3FF47CAF03951D46A54216D226
:10085000DDE906014A1C824204F1FF3414D80598F0
:100860004FF02003435408980699079201308A42BA
:1008700008900CD00028C0F28E80002CE6D12B46C8
:10088000039D5DE7013CD3E78142F6D10A46059915
:10089000099800F087F8079A90427FF46DAE029BAA
:1008A00008980793E6E70AA9584600F07BF8DDE9C7
:1008B0000720104452E6DDE9062101F1010C9445C0
:1008C000C9F100094BD8059A2D2050540898069A72
:1008D000CDF81CC001309445089043D00028FFF6A5
:1008E000B4AE34E7DDE9062101F1010C94454BD8A3
:1008F000059A2B20E9E7002F7FF42EAFF4B1CDF855
:100900000880A8461D46A54241D2DDE906014A1CE1
:10091000824204F1FF3413D805984FF0300343545A
:1009200008980699079201308A4208900BD0002857
:1009300033DB002CE7D14546DDF8088000240BE7C7
:100940008142F6D10A460599099800F02BF8079ADA
:1009500090427FF411AE002308980793E7E7914295
:100960007FF4F5AE05990998029300F01BF8079AF9
:10097000029B90427FF400AE002208980792ADE7F8
:10098000E0130000CDCCCCCC9142EBD0DFE6454665
:10099000DDF80880E0E6039D57E64546DDF808806F
:1009A00053E600BF2DE9F04FDFF82C9299F8004094
:1009B00083B082468B469046DCB1EFF311834FF053
:1009C000200181F311880AEB4A0609EBC606009361
:1009D000F76A012F4FEA4A0400F09980022F59D09C
:1009E000AFB30027009B83F31188384603B0BDE8FE
:1009F000F08F744AC9F81820C9F860200322C9E9A9
:100A00000422714AC9F81C20704AC9F864204FF4C6
:100A10008062C9F820201022C9F868206C49C9F802
:100A20002840C9F82440C9F82C40C9F87040C9F8DA
:100A30006C40C9F8744009F1070000F04DFC6549AD
:100A4000484600F049FC202289F80620B5E7B26A42
:100A5000756AAA429CBF316A5218013A521B9045EE
:100A6000C0D8544409EBC4040AF1010A266A771B72
:100A70000AEB4A0AB84509EBCA0980F08F80D9F819
:100A80000400594628444246454400F027FB4746A7
:100A90006562A7E70AF1010A0AEB4A0A756A4FEA9A
:100AA000CA0A0027B36AAB4203F1FF3424D9326A81
:100AB000641B444509EB0A012346A2EB050428BF49
:100AC00043469C42486828BF1C4628445946224653
:100AD00000F004FB336A25449D42A8EB0408274438
:100AE000A3440ED07562B8F1000F3FF47BAFB36A38
:100AF000AB4203F1FF34DAD8326A1344013B5C1B8A
:100B0000D7E700257562B8F1000FCBD16AE7B76A65
:100B1000756AAF421BD9013F7F1B366A474528BF24
:100B20004746721B97421CD20AF1010303EB4303B1
:100B300009EBC3035444586809EBC40928445946D7
:100B40003A463D4400F0CAFAC9F824504AE7366AEA
:100B50003744013F7F1B474528BF4746721B9742DA
:100B6000E2D30AF1010808EB480809EBC808594626
:100B7000D8F804000192284400F0B0FABE1B019A94
:100B8000D8F804005444354409EBC4090BEB0201C6
:100B90002A4600F0A3FAC9F8245023E7D9F8040044
:100BA000284445443A465946AD1B00F097FA0BEBF2
:100BB0000701D9F804002A4600F090FA474665621A
:100BC00010E700BFF01300002C0100201C010020E2
:100BD000FC13000000140000740000202DE9F04117
:100BE000284C05462078884617461E4630B32369B0
:100BF000AB4243D9EFF311834FF0200181F3118809
:100C000055B92846054404EBC504069AE26283F30D
:100C100011880020BDE8F081681C00EB4000C00096
:100C200005EB450204EBC20244F800802044002199
:100C300047601662680091625162E3E7124BA3615C
:100C400023660323C4E90433104BE361104B63664E
:100C50004FF4806323621023A062A3660D49606293
:100C6000E0622067E0666067E01D00F035FB0A493E
:100C7000204600F031FB2023A371B8E74FF0FF308E
:100C8000C8E700BF74000020F01300002C01002012
:100C90001C010020FC1300000014000010B5114CD2
:100CA000114A12490320C4E904001148C4E906208E
:100CB0004FF4806020620F480023C4E918201022FE
:100CC000E01DA3626362E3622367E3666367A26673
:100CD00000F002FB0849204600F0FEFA2023A37131
:100CE00010BD00BF74000020F0130000FC130000D2
:100CF0002C0100201C0100200014000010B5164C2F
:100D00002368D3F808213AB1626A0021C3F80811B8
:100D100012B1012090472368D3F81C219AB1626A6E
:100D20000021C3F81C1112B10846904723680B49F3
:100D3000D1E940204240D2B23AB10A5CC3F81C2546
:100D40000130C1F80401002010BD80210122C3F848
:100D50000813DA60002010BD38060020300500209E
:100D600000285ED003794162002B48D0012B58D176
:100D70002623C36010B490F819C0037E817E0268F8
:100D8000294C43EA0C030B43C2F86C350368C26973
:100D9000C3F82425D0E902120368C3F80C15C3F880
:100DA000142503680822C3F80025036843F30732BB
:100DB000002A4FEA133C1346B8BF02F11F035B1130
:100DC000514254F8233001F01F0102F01F0058BFB8
:100DD000484223FA00F010F0010015D1002A17DB79
:100DE000A318802183F80013012152090CF01F037E
:100DF00001FA03F344F822305DF8044B70470623F0
:100E00000822C0E90232B5E700205DF8044B7047C4
:100E1000064A0CF00F031A44802313765DF8044B46
:100E200070474FF0FF30704700E100E0FCEC00E05D
:100E3000B8B1B1B110B4436A5BB10368C3F84415EB
:100E4000C3F84825036801229A6000205DF8044B2E
:100E500070470368D3F804432406EFD44FF0FF3003
:100E6000F4E74FF0FF307047B0FA80F0400940429D
:100E7000704700BF30B329B3436A0BB100207047FD
:100E800030B40568D5F8044314F0800417D1C5F8D0
:100E90004415C5F84825036801229A600368C3F821
:100EA00020410268D2F82031002BFBD00023C2F889
:100EB000203102680121D160184630BC70471846C5
:100EC00030BC70474FF0FF30704700BF012870B54D
:100ED00030D80546382000F0F1F8044668B3E5B98B
:100EE000174D84460FCDACE80F000FCDACE80F00D6
:100EF0000FCDACE80F0095E803008CE80300114823
:100F00001149124A2379C4E90A0111491148C4E977
:100F10000C100121D154204670BD0F4E05460FCE56
:100F20000FC50FCE0FC50FCE0FC596E8030085E89D
:100F30000300E4E70024204670BD00F0C7F8EAE7AC
:100F400030130000610D0000750E000060060020E7
:100F5000310E0000690E0000681300004FF080425F
:100F600000210123C2F800111360D2F80031002BD8
:100F7000FBD04FF0E023002101380722996158612E
:100F80001A617047830910B500F03F0413B303F1F1
:100F9000FF3C154B15491B68A1FB033E4FEA9E1E03
:100FA0004FF0E0224FEA8E1091699369CB1A23F03B
:100FB0007F438342F9D3BCF1010CF5D24FF0E0211D
:100FC0000EFB04F288698B69C31A23F07F439342B6
:100FD000F9D310BD044A054BD2F800E0A3FB0E3E46
:100FE0004FEA9E1EEAE700BF04000020D34D6210C6
:100FF00038B5194C23685BB34FF08045D5F8002114
:1010000022B1002098470023C5F800314FF08045F9
:10101000D5F804312BB12368012098470023C5F887
:1010200004314FF08045D5F810312BB123680220F0
:1010300098470023C5F810314FF08045D5F80C01D2
:1010400028B10320236898470020C5F80C0138BD5B
:101050004FF0FF3038BD00BF6406002038B5124C99
:101060002368EBB1114DD5F8002122B1002098473B
:101070000023C5F800310D4DD5F80C312BB1236894
:10108000032098470023C5F80C31084DD5F810010E
:1010900028B10420236898470020C5F8100138BD06
:1010A0004FF0FF3038BD00BF6C060020001000403C
:1010B000014B1868704700BF08000020024B014632
:1010C000186800F085B800BF08000020024B0146F8
:1010D000186800F011B800BF080000200A449142CF
:1010E00000F1FF3300D1704710B511F8014B03F840
:1010F000014F9142F9D110BD37B5002944D051F8C4
:10110000043C0190002BA1F10404B8BFE41800F0E6
:10111000EBF81E4A0198136833B96360146003B09A
:10112000BDE8304000F0E6B8A34208D9256861194F
:101130008B4201BF19685B6849192160EDE71A46C7
:101140005B680BB1A342FAD911685518A5420BD1BF
:10115000246821445418A3421160E0D11C685B68E4
:10116000536021441160DAE702D90C230360D6E70B
:10117000256861198B4204BF19685B68636004BF0E
:10118000491921605460CAE703B030BD74060020DD
:1011900070B50E4E0C463168054611B900F08CF85A
:1011A00030602146284600F087F8431C0AD0C41C52
:1011B00024F00304A04207D0211A284600F07CF84E
:1011C000013001D14FF0FF34204670BD7806002079
:1011D0002DE9F041CD1C25F0030508350C2D38BF55
:1011E0000C25002D074601DBA94205D90C233B60E5
:1011F00000263046BDE8F0812E4E00F075F83368C9
:101200001C4634BB29463846FFF7C2FF431C044640
:101210004DD134682646002E40D1236831463846E9
:1012200004EB030800F048F880453AD12168033503
:101230006D1A25F0030508350C2D38BF0C252946FD
:101240003846FFF7A5FF01302BD023682B442360DD
:101250000EE02268521B1ED40B2A16D96119A34234
:10126000256018BF5960636808BF316062514B60E8
:10127000384604F10B0600F03DF826F00706231D62
:10128000F21AB6D09B1BA350B3E76268A3420CBF0F
:1012900032605A60ECE723466468B2E73446766809
:1012A000B9E70C233B60384600F024F8A1E725603D
:1012B000DEE700BF7406002038B5064D0023044663
:1012C00008462B60FEF7B2FF431C02D12B6803B126
:1012D000236038BD7C060020034611F8012B03F87B
:1012E000012B002AF9D17047014800F009B800BF6E
:1012F00080060020014800F004B800BF80060020EE
:1013000070477047F8B500BFF8BC08BC9E467047F0
:10131000F8B500BFF8BC08BC9E467047000000004E
:101320005FF800F0A90600205FF800F089060020B1
:101330000020004000000000FFFFFFFFFFFFFFFF55
:10134000FFFFFFFFFFFFFFFF000000000000D601CE
:10135000000000000000000000000000000000008D
:1013600000000000000000000080024001000000BA
:10137000FFFFFFFFFFFFFFFFFFFFFFFFFFFFFFFF7D
:10138000000000000000D601000000000000000086
:10139000000000000000000000000000000000004D
:1013A00041434520426F6F746C6F616465720A003F
:1013B0004A756D7020746F20426F6F746C6F61643A
:1013C00065720A00426F6F746C6F6164657220739E
:1013D000746172740A000000313233343500000049
:1013E000303132333435363738394142434445465B
:1013F0005465726D696E616C0000000052545400B7
:08140000534547474552000027
:10140800010200000090D0030C0000200000000042
:1014180000000000000000000000000000000000C4
:1014280000000000000000000000000000000000B4
:1014380000000000000000000000000000000000A4
:101448000000000000000000000000000000000094
:101458000000000000000000000000000000000084
:0C14680000000000000000000000000078
:02000002A0005C
:1000000000B583B000F020F80023022200921946C8
:100010001A46184600F014F803B05DF804FB00BF60
:100020000FB400B583B004AB01AA53F8041B0193CD
:10003000002000F00DF803B05DF804EB04B0704749
:100040005FF800F0DD0B00005FF800F09D0C000091
:080050005FF800F0FD04000060
:04000003000002C136
:00000001FF
